{
  "_format": "hh-sol-artifact-1",
  "contractName": "AttestationRelayer",
  "sourceName": "contracts/AttestationRelayer.sol",
  "abi": [
    {
      "inputs": [
        {
          "internalType": "address",
          "name": "_eas",
          "type": "address"
        },
        {
          "internalType": "address",
          "name": "_authority",
          "type": "address"
        },
        {
          "internalType": "address",
          "name": "_messanger",
          "type": "address"
        }
      ],
      "stateMutability": "payable",
      "type": "constructor"
    },
    {
      "inputs": [
        {
          "internalType": "bytes32",
          "name": "uid",
          "type": "bytes32"
        },
        {
          "internalType": "address",
          "name": "target",
          "type": "address"
        }
      ],
      "name": "sendAttestation",
      "outputs": [],
      "stateMutability": "nonpayable",
      "type": "function"
    }
  ],
  "bytecode": "0x608060405260405162000e4538038062000e458339818101604052810190620000299190620001d0565b600073ffffffffffffffffffffffffffffffffffffffff168373ffffffffffffffffffffffffffffffffffffffff16036200009b576040517f08c379a000000000000000000000000000000000000000000000000000000000815260040162000092906200028d565b60405180910390fd5b826000806101000a81548173ffffffffffffffffffffffffffffffffffffffff021916908373ffffffffffffffffffffffffffffffffffffffff16021790555081600160006101000a81548173ffffffffffffffffffffffffffffffffffffffff021916908373ffffffffffffffffffffffffffffffffffffffff16021790555080600260006101000a81548173ffffffffffffffffffffffffffffffffffffffff021916908373ffffffffffffffffffffffffffffffffffffffff160217905550505050620002af565b600080fd5b600073ffffffffffffffffffffffffffffffffffffffff82169050919050565b600062000198826200016b565b9050919050565b620001aa816200018b565b8114620001b657600080fd5b50565b600081519050620001ca816200019f565b92915050565b600080600060608486031215620001ec57620001eb62000166565b5b6000620001fc86828701620001b9565b93505060206200020f86828701620001b9565b92505060406200022286828701620001b9565b9150509250925092565b600082825260208201905092915050565b7f45415320616464726573732063616e6e6f742062652030783000000000000000600082015250565b6000620002756019836200022c565b915062000282826200023d565b602082019050919050565b60006020820190508181036000830152620002a88162000266565b9050919050565b610b8680620002bf6000396000f3fe608060405234801561001057600080fd5b506004361061002b5760003560e01c80630875389c14610030575b600080fd5b61004a6004803603810190610045919061052b565b61004c565b005b61005582610301565b61007e60008054906101000a900473ffffffffffffffffffffffffffffffffffffffff1661039a565b60008060009054906101000a900473ffffffffffffffffffffffffffffffffffffffff1673ffffffffffffffffffffffffffffffffffffffff1663a3112a64846040518263ffffffff1660e01b81526004016100da919061057a565b600060405180830381865afa1580156100f7573d6000803e3d6000fd5b505050506040513d6000823e3d601f19601f8201168201806040525081019061012091906108b4565b905061012f8160000151610301565b82816000015114610175576040517f08c379a000000000000000000000000000000000000000000000000000000000815260040161016c9061095a565b60405180910390fd5b600160009054906101000a900473ffffffffffffffffffffffffffffffffffffffff1673ffffffffffffffffffffffffffffffffffffffff168160e0015173ffffffffffffffffffffffffffffffffffffffff1614610209576040517f08c379a0000000000000000000000000000000000000000000000000000000008152600401610200906109c6565b60405180910390fd5b600260009054906101000a900473ffffffffffffffffffffffffffffffffffffffff1673ffffffffffffffffffffffffffffffffffffffff16633dbb202b838360e001518460c001516040516024016102639291906109f5565b6040516020818303038152906040526301c226df60e01b6020820180517bffffffffffffffffffffffffffffffffffffffffffffffffffffffff83818316178352505050506207a1206040518463ffffffff1660e01b81526004016102ca93929190610ac8565b600060405180830381600087803b1580156102e457600080fd5b505af11580156102f8573d6000803e3d6000fd5b50505050505050565b61039781604051602401610315919061057a565b6040516020818303038152906040527f27b7cf85000000000000000000000000000000000000000000000000000000007bffffffffffffffffffffffffffffffffffffffffffffffffffffffff19166020820180517bffffffffffffffffffffffffffffffffffffffffffffffffffffffff8381831617835250505050610433565b50565b610430816040516024016103ae9190610b06565b6040516020818303038152906040527f2c2ecbc2000000000000000000000000000000000000000000000000000000007bffffffffffffffffffffffffffffffffffffffffffffffffffffffff19166020820180517bffffffffffffffffffffffffffffffffffffffffffffffffffffffff8381831617835250505050610433565b50565b61044a8161044261044d61046e565b63ffffffff16565b50565b60006a636f6e736f6c652e6c6f679050600080835160208501845afa505050565b610479819050919050565b610481610b21565b565b6000604051905090565b600080fd5b600080fd5b6000819050919050565b6104aa81610497565b81146104b557600080fd5b50565b6000813590506104c7816104a1565b92915050565b600073ffffffffffffffffffffffffffffffffffffffff82169050919050565b60006104f8826104cd565b9050919050565b610508816104ed565b811461051357600080fd5b50565b600081359050610525816104ff565b92915050565b600080604083850312156105425761054161048d565b5b6000610550858286016104b8565b925050602061056185828601610516565b9150509250929050565b61057481610497565b82525050565b600060208201905061058f600083018461056b565b92915050565b600080fd5b6000601f19601f8301169050919050565b7f4e487b7100000000000000000000000000000000000000000000000000000000600052604160045260246000fd5b6105e38261059a565b810181811067ffffffffffffffff82111715610602576106016105ab565b5b80604052505050565b6000610615610483565b905061062182826105da565b919050565b600080fd5b60008151905061063a816104a1565b92915050565b600067ffffffffffffffff82169050919050565b61065d81610640565b811461066857600080fd5b50565b60008151905061067a81610654565b92915050565b60008151905061068f816104ff565b92915050565b60008115159050919050565b6106aa81610695565b81146106b557600080fd5b50565b6000815190506106c7816106a1565b92915050565b600080fd5b600080fd5b600067ffffffffffffffff8211156106f2576106f16105ab565b5b6106fb8261059a565b9050602081019050919050565b60005b8381101561072657808201518184015260208101905061070b565b60008484015250505050565b6000610745610740846106d7565b61060b565b905082815260208101848484011115610761576107606106d2565b5b61076c848285610708565b509392505050565b600082601f830112610789576107886106cd565b5b8151610799848260208601610732565b91505092915050565b600061014082840312156107b9576107b8610595565b5b6107c461014061060b565b905060006107d48482850161062b565b60008301525060206107e88482850161062b565b60208301525060406107fc8482850161066b565b60408301525060606108108482850161066b565b60608301525060806108248482850161066b565b60808301525060a06108388482850161062b565b60a08301525060c061084c84828501610680565b60c08301525060e061086084828501610680565b60e083015250610100610875848285016106b8565b6101008301525061012082015167ffffffffffffffff81111561089b5761089a610626565b5b6108a784828501610774565b6101208301525092915050565b6000602082840312156108ca576108c961048d565b5b600082015167ffffffffffffffff8111156108e8576108e7610492565b5b6108f4848285016107a2565b91505092915050565b600082825260208201905092915050565b7f696e76616c69642061747465746174696f6e0000000000000000000000000000600082015250565b60006109446012836108fd565b915061094f8261090e565b602082019050919050565b6000602082019050818103600083015261097381610937565b9050919050565b7f696e76616c696420617474657374657200000000000000000000000000000000600082015250565b60006109b06010836108fd565b91506109bb8261097a565b602082019050919050565b600060208201905081810360008301526109df816109a3565b9050919050565b6109ef816104ed565b82525050565b6000604082019050610a0a60008301856109e6565b610a1760208301846109e6565b9392505050565b600081519050919050565b600082825260208201905092915050565b6000610a4582610a1e565b610a4f8185610a29565b9350610a5f818560208601610708565b610a688161059a565b840191505092915050565b6000819050919050565b600063ffffffff82169050919050565b6000819050919050565b6000610ab2610aad610aa884610a73565b610a8d565b610a7d565b9050919050565b610ac281610a97565b82525050565b6000606082019050610add60008301866109e6565b8181036020830152610aef8185610a3a565b9050610afe6040830184610ab9565b949350505050565b6000602082019050610b1b60008301846109e6565b92915050565b7f4e487b7100000000000000000000000000000000000000000000000000000000600052605160045260246000fdfea2646970667358221220baa73ca4fad8b1bdc436be11fdd3b799ea359a655984873941f9f21e3b2c0bb164736f6c63430008180033",
  "linkReferences": {},
  "deployedLinkReferences": {}
}